:020000020000FC
:100000001AC018951895189518951895189518955B
:100010001895189518951895189518951895189578
:100020001895189518951895189513951CD001B525
:10003000006401BD18950FED0DBF0ED012C005B7BD
:10004000006405BF0895F894A89501B5086101BD45
:100050000CE401BD789408950FEF0ABB00270BBB99
:10006000089501D0FECFD89A0CD0D8980AD0089520
:10007000A89500E004BF01B5086101BD00E001BD25
:10008000089522E83CED3A95F1F72A95E1F7000052
:020090000895D1
:00000001FF
