:020000020000FC
:100000001AC018951895189518951895189518955B
:100010001895189518951895189518951895189578
:100020001895189502C018951895A3941ED001B57F
:10003000006401BD18950FED0DBF10D002D005D0A2
:1000400012C005B7006105BF0895F894A89501B5E1
:10005000086101BD0EE401BD789408950FEF0ABB5D
:1000600000270BBB089506D0FECFD89A1BD0D89896
:1000700019D008950F930AE0A01608F408C0AA2426
:1000800008D005B7006205BF0F91F89488950F91CD
:100090000895A89500E004BF01B5086101BD00E026
:1000A00001BD089522E83CED3A95F1F72A95E1F774
:0400B00000000895AF
:00000001FF
